:100000000C94C1050C94E9050C94E9050C94E905E0
:100010000C94E9050C94E9050C94E9050C94E905A8
:100020000C94E9050C94E9050C945F140C94CE141F
:100030000C94E9050C94E9050C94E9050C94E90588
:100040000C94E9050C94E9050C94E9050C94E90578
:100050000C94E9050C94E9050C94E9050C9400173F
:100060000C94E9050C94E9050C94E9050C94E90558
:100070000C94E9050C94E9050C94E9050C94E90548
:100080000C94E9050C94E9050C94E9050C94E90538
:100090000C94E9050C94E9050C94E9050C94E90528
:1000A0000C94E9050C94E9050C94E90505A84CCDE0
:1000B000B2D44EB93836A9020C50B9918688083CA2
:1000C000A6AAAA2ABE000000803F07634236B79B5B
:1000D000D8A71A39685618AEBAAB558C1D3CB7CCA8
:1000E0005763BD6DEDFD753EF6177231BF00000020
:1000F000803F08000000BE922449123EABAAAA2A03
:10010000BECDCCCC4C3E00000080BEABAAAAAA3E1D
:1001100000000000BF000000803F00000000000859
:100120004178D3BB4387D1133D190E3CC3BD4282F6
:10013000AD2B3E68EC8276BED98FE1A93E4C80EFB4
:10014000FFBE01C4FF7F3F00000000000000000070
:10015000003E5B4F5B3E3E6B4F6B3E1C3E7C3E1C4D
:10016000183C7E3C181C577D571C1C5E7F5E1C0093
:10017000183C1800FFE7C3E7FF0018241800FFE74A
:10018000DBE7FF30483A060E2629792926407F050D
:100190000507407F05253F5A3CE73C5A7F3E1C1C23
:1001A00008081C1C3E7F14227F22145F5F005F5FE3
:1001B00006097F017F006689956A606060606094CF
:1001C000A2FFA29408047E040810207E20100808D4
:1001D0002A1C08081C2A08081E101010100C1E0CDF
:1001E0001E0C30383E3830060E3E0E060000000071
:1001F0000000005F00000007000700147F147F1458
:10020000242A7F2A1223130864623649562050009C
:1002100008070300001C2241000041221C002A1C88
:100220007F1C2A08083E0808008070300008080873
:100230000808000060600020100804023E51494593
:100240003E00427F400072494949462141494D33B1
:100250001814127F1027454545393C4A4949314118
:10026000211109073649494936464949291E0000E6
:10027000140000004034000000081422411414143B
:100280001414004122140802015909063E415D5927
:100290004E7C1211127C7F494949363E4141412230
:1002A0007F4141413E7F494949417F090909013E5A
:1002B000414151737F0808087F00417F4100204081
:1002C000413F017F081422417F404040407F021C93
:1002D000027F7F0408107F3E4141413E7F090909AA
:1002E000063E4151215E7F09192946264949493276
:1002F00003017F01033F4040403F1F2040201F3F3C
:100300004038403F631408146303047804036159C0
:10031000494D43007F414141020408102000414102
:10032000417F0402010204404040404000030708AE
:100330000020545478407F284444383844444428AA
:10034000384444287F385454541800087E09021851
:10035000A4A49C787F0804047800447D40002040D9
:10036000403D007F1028440000417F40007C04781D
:1003700004787C080404783844444438FC18242465
:100380001818242418FC7C080404084854545424E5
:1003900004043F44243C4040207C1C2040201C3C62
:1003A0004030403C44281028444C9090907C446459
:1003B000544C4400083641000000770000004136EC
:1003C000080002010204023C2623263C1EA1A16172
:1003D000123A4040207A38545455592155557941A4
:1003E0002154547841215554784020545579400C7B
:1003F0001E5272123955555559395454545939555C
:100400005454580000457C410002457D420001459E
:100410007C40F0292429F0F0282528F07C5455450B
:10042000002054547C547C0A097F4932494949329E
:100430003248484832324A4848303A4141217A3AB3
:1004400042402078009DA0A07D39444444393D407D
:1004500040403D3C24FF2424487E4943662B2FFC2A
:100460002F2BFF0929F620C0887E090320545479D8
:10047000410000447D413048484A32384040227AA9
:10048000007A0A0A727D0D19317D2629292F282626
:100490002929292630484D4020380808080808082E
:1004A0000808382F10C8ACBA2F102834FA00007B87
:1004B000000008142A142222142A1408950022008D
:1004C00095AA005500AAAA55AA55AA000000FF0047
:1004D000101010FF00141414FF001010FF00FF1084
:1004E00010F010F0141414FC001414F700FF0000B6
:1004F000FF00FF1414F404FC141417101F10101F35
:10050000101F1414141F00101010F0000000001F22
:10051000101010101F10101010F010000000FF102D
:100520001010101010101010FF10000000FF140029
:1005300000FF00FF00001F10170000FC04F414145B
:100540001710171414F404F40000FF00F714141427
:1005500014141414F700F7141414171410101F10A7
:100560001F141414F4141010F010F000001F101FCA
:100570000000001F14000000FC140000F010F01038
:1005800010FF10FF141414FF141010101F000000AF
:1005900000F010FFFFFFFFFFF0F0F0F0F0FFFFFFB3
:1005A0000000000000FFFF0F0F0F0F0F384444380A
:1005B000447C2A2A3E147E02020606027E027E0245
:1005C00063554941633844443C04407E201E200664
:1005D000027E020299A5E7A5991C2A492A1C4C72A1
:1005E00001724C304A4D4D303048784830BC625A28
:1005F000463D3E494949007E0101017E2A2A2A2AB8
:100600002A44445F444440514A444040444A514093
:100610000000FF0103E080FF000008086B6B083654
:1006200012362436060F090F0600001818000000C5
:100630001010003040FF0101001F01011E00191DB4
:100640001712003C3C3C3C0000000000080B00027C
:10065000020200000904000001020200000524005B
:1006600010010524010101042402060524060001ED
:100670000705810310004009040100020A00000080
:100680000705020240000007058302400000040342
:10069000090412010002EF020140412336800001EB
:1006A0000102030141726475696E6F204C4C430076
:1006B00041726475696E6F204C656F6E6172646F14
:1006C00000D5F08D14A1C881CFD9F1AF20008040B2
:1006D000FFFFFFFFFFFFFFFFFFFFFFFFFFFFFFFF2A
:1006E000FFFF7F9FEFF7F7F7F7CF1F7FFF0FE7F7CA
:1006F000F7F7777777F7EFEF9F0F07F7F7F777774A
:1007000077E7EFEFDFBF0FE7F7F7E70FFF0F07F729
:10071000F7F70F0FE7F7F7F7777777F7E7EFDF1FD1
:100720000FE7F7F7E70F0FF7F7F7079FDFEFE77729
:1007300037B7C70FE7F7F7F77777777777770FFF51
:10074000FFFFFFFFFFFFFFFFFFFFFFFFFFFFFFFFB9
:10075000FFFFFFFFFFFFFFFFFFFFFFFFFFFFFF3F69
:10076000CFF1FCFF3FB3B0B0BF7FFEF8E100FFFF69
:10077000FFFF0C9E3E7FF7E3990000FFFFFFE0CFF5
:10078000EEF07F7FBF9FC09F7F7FFFE0CFE8F07FCD
:100790007FBF8000FFFFFFFFC6C6C6EF7F7F798067
:1007A00000FFFFFFFF0000FFFFFF0F8F9F7FF8F2AA
:1007B000C79F3F00FFFFFFFFC6C6C6C6C6C01FFFDC
:1007C000FFFFFFFFFFFFFFFFFFFFFFFFFFFFFFFF39
:1007D000FFFFFFFFFFFFFFFFFFFFFFFFFFFFFFFE2A
:1007E000FEFEFEFEFFFFFFFFFFFEFEFEFEFEFEFE24
:1007F000FEFEFEFFFFFEFEFEFEFEFEFEFEFEFEFE17
:10080000FEFEFFFFFFFFFF7FBFBFFEFEFEFEDEC25C
:10081000070F1F1E3E7E7EFEFEFEFEFEFEFFFFFF5A
:10082000FEFEFEFEFEFEFEFEFEFEFEFFFFFEFEFEE6
:10083000FEFEFEFEFEFEFEFEFEFEFEFEFEFEFEFFD7
:10084000FFFFFFFFFFFFFFFFFFFFFFFFFFFFFFFFB8
:100850007FFF7F7F7FFFFFFFFFBFFFFF1F1F3F3F28
:100860007FFFFFBFDFFFEFFFFFFBFD7FFEECE181BE
:100870008317272F0F9F9F3F7FFFFFFF7F7F7F7D86
:100880007F7F7E7C79FFFEFFFFDFFFFFFFFF274DAD
:100890002941D0E0E0F0707C387979737F7FFFFEEA
:1008A000F4E14143878F0F1F1F3F3F3F7FDFFFEF83
:1008B000CF1F1F3F7F7FFFFFFFFF7FFFFF3F3F7F78
:1008C000FFFFFFFFFFFFFFFF7F7F7FFFDFFFBF0F08
:1008D000FE1F3F3E7E7E3EFFFFFFFDFFFEFEFEFF52
:1008E000FFFFFFFFFBFFFFFFFFFDFEFFFEFCF9F92F
:1008F000FF7E7E7E7C7D7F7F7F7F7F7FFEFEFCFC98
:10090000FCF0841E7E3E3FBFBF9FDFDFDFCFEFEFF7
:10091000E7E777371383C3E0F0E0C20C3E431C7F68
:100920007F7F7E7E7C7B7D7EFEFCFDFBFCFCFFFFF3
:10093000FBFFFCFCF9FCFEFCFCFBFFFFFFFF7E7EE7
:10094000FCFCF8FDFDF9FD7EFE7F1F3FFF3F1F7F92
:100950001E3E3C7C78787878F9F1F0F1F3F3F3F10E
:10096000F3F7F3F3F3F7EFFFFFFF1F0703C1F1F016
:10097000F8FCF4FC7E1E1E1E3E3E9E5CECE0F0E1A8
:10098000C1000E1EF8C1073F7F7F7F3F9F8FC7E3E7
:10099000F1F8FCFEFF1F0F07C3E1F1F8FCF8600659
:1009A0001E3C1E3E3EFCFC7CFCD8F1E183070F3F61
:1009B000FFFFF7F3F7F7F3F1F3FBFBFDF9FDFEFCA7
:1009C000F57D3C3D1D3C397C78381818381C1E0CD0
:1009D00000000000000000000001011011018181F1
:1009E0000181010383C7CF8FBFFDE0C0800F1F3F90
:1009F0003F7F7DFCF89090A0F0F8FC7C7C3D1D0DC5
:100A00000580C0E0FDF8E0E0E0E0F0F8FBFBFBF380
:100A1000FBFFFFFFFFF0C0800F1F3F7F7FFDFCF853
:100A2000F0F0F0F0F8F8FFFF7F7F1F1F0780C0F0A5
:100A3000FFFFDFCF470303038341014301010000B0
:100A40000000000000002020000000000000000066
:100A50000000000000000000000000000200000094
:100A60000000000000010001010101010303020276
:100A70000000001000000000001010000000020341
:100A800003030101013131030101010101010101F0
:100A9000030303010103030311020000000000101F
:100AA0000101010001000000000002020301011326
:100AB0000101010103010000000002020200000028
:100AC0000000000000000000000000000000000026
:100AD000F0F89C8E8783878E9CF8F00000FEFF0361
:100AE00003030303070EFCF80000FEFF03030303E8
:100AF00003070EFCF80000FFFF00000000000000EC
:100B0000FFFF0000FEFF8383838383C7EE7C3800F2
:100B100000F8FC0E07030303070EFCF800003F7FFC
:100B2000E0C08080C0E07F3FFFFF010101010101C3
:100B300001FFFF0000FFFF0C0C0C0C1C3E77E3C113
:100B400000007FFFC0C0C0C0C0E0703F1F00001F9A
:100B50003F70E0C0C0C0E0703F1F00007FFFC1C118
:100B6000C1C1C1E3773E1C00001F3F70E0C0C0C0A0
:100B7000E0703F1F000000000001FFFF01000000C7
:100B80007D1711241FBECFEFDAE0DEBFCDBF12E02C
:100B9000A0E0B1E0E2E7F5E402C005900D92AE38C6
:100BA000B107D9F727E0AEE8B2E001C01D92A83244
:100BB000B207E1F715E0C1ECD5E004C02197FE01D2
:100BC0000E948E22C03CD107C9F70E949A170C944C
:100BD000B7220C9400004F925F926F927F928F9297
:100BE0009F92AF92BF92CF92DF92EF92FF920F93BC
:100BF0001F93CF93DF93FB01E00FF11D1E161F061D
:100C00000CF08FC0603471050CF08BC0DB0177FFF6
:100C100004C0AA27BB27A61BB70BA770BB27EB01F5
:100C200077FD2796E3E0D595C795EA95E1F777FF3D
:100C300007C0219768E070E0FB01EA1BFB0BDF01B6
:100C4000E02EE694E694E694F12C077019F0FFEF9D
:100C5000EF1AFF0A30E08A01AE015695542F44275F
:100C600057954795480F591F4C525D4FBE01E0E81C
:100C7000F0E05F01A81AB90A88E090E03C016A1A26
:100C80007B0A6F3F8FEF78070CF43BC090E080E069
:100C90004A01E0E88E0E911C6F3F760709F452C0BE
:100CA000FC01E00FF11FE4916A01C80ED91EF0E0CB
:100CB0002F010A2E01C0440C0A94EAF7F601508075
:100CC000452840821097B1F06730710599F0F8011E
:100CD000E80FF91FE4916401C80ED91EF0E02F015E
:100CE000062C02C0559447940A94E2F7F60150800E
:100CF000452840820196821793071CF4A816B9066E
:100D000059F66F5F7F4F020F131F40585F4FCB01A3
:100D10008C1B9D0B8E159F0524F46830710509F01E
:100D2000B0CFDF91CF911F910F91FF90EF90DF90A7
:100D3000CF90BF90AF909F908F907F906F905F907B
:100D40004F900895109709F0C2CFD4CFE4EDF2E0B0
:100D5000A0E0B8E000800EBC8111012C1197A0FD2D
:100D6000FDCF0192B9F70DB40895FC018091D30233
:100D7000882311F13FB7F89482E08093E900209135
:100D8000F200822F90E01816190614F481E090E02A
:100D9000882339F0289844E64093D2024091F1002C
:100DA0004083222339F02091F200211103C02BE669
:100DB0002093E8003FBF08958FEF9FEF08952FB76E
:100DC000F89483E08093E9009091E800892F807285
:100DD00095FF04C09091F20080E4891B2FBF089515
:100DE0008091CA0281110DC082E08093C60284E026
:100DF0008093C7021092C9021092C80281E08093CA
:100E0000CA0286EC92E008954091AA025091AB028A
:100E10002091A8023091A90242175307B4F490918F
:100E2000E8009570E1F39091E80092FD19C080937D
:100E3000F1008091AA029091AB0201968F739927DD
:100E4000892B19F48EEF8093E8008091AA0290918B
:100E5000AB0201969093AB028093AA0281E00895C1
:100E600080E00895DF92EF92FF920F931F93CF934C
:100E7000DF93D82E8A01EB017B01E40EF51ECE151F
:100E8000DF0559F0D7FE12C0FE0184910E940407CD
:100E900021968111F4CF0FEF1FEFC801DF91CF91A1
:100EA0001F910F91FF90EF90DF9008958881EECF12
:100EB0000F931F93CF93DF931F92CDB7DEB782E0DE
:100EC000898342E450E06CE476E080E80E943207D7
:100ED0000E94F006DC0112960D911C91011511057E
:100EE00089F0D801ED91FC910280F381E02DBE01E3
:100EF0006F5F7F4FC801099597FD04C0F801008519
:100F00001185ECCF89810F90DF91CF911F910F91C7
:100F10000895615030F02091F100FC01208301968A
:100F2000F8CF289884E68093D2020895AF92BF92BA
:100F3000CF92DF92EF92FF920F931F93CF93DF93A5
:100F40006C017B018B01040F151FEB015E01AE18D4
:100F5000BF08C017D10759F06991D601ED91FC91F6
:100F60000190F081E02DC6010995892B79F7C50123
:100F7000DF91CF911F910F91FF90EF90DF90CF9075
:100F8000BF90AF900895CF93DF931F92CDB7DEB798
:100F90006983DC01ED91FC910280F381E02D41E059
:100FA00050E0BE016F5F7F4F09950F90DF91CF91A9
:100FB000089583E08093E9008091F200882319F07E
:100FC0008AE38093E80008950E94DF0690E0089588
:100FD000CF93DF931F92CDB7DEB7FC018485958553
:100FE00097FD08C02FEF3FEF358724870F90DF91E3
:100FF000CF910895CE0101960E94B506019719F48C
:10100000898190E0F3CF8FEF9FEFF0CF0F931F9385
:10101000CF93DF931F92CDB7DEB78C01FC0184859F
:10102000958597FF0BC0CE0101960E94B5060197EA
:1010300071F4898190E0F80195878487F8018485AF
:1010400095850F90DF91CF911F910F9108958FEFAC
:101050009FEFF1CFFC018485958597FD0BC09FB76D
:10106000F89482E08093E9008091F2009FBF90E0C5
:10107000019608959FB7F89482E08093E9008091EB
:10108000F2009FBF90E008953FB7F8948091A402CA
:101090009091A502A091A602B091A70226B5A89BA7
:1010A00005C02F3F19F00196A11DB11D3FBFBA2FFA
:1010B000A92F982F8827BC01CD01620F711D811DBA
:1010C000911D42E0660F771F881F991F4A95D1F73F
:1010D00008958F929F92AF92BF92CF92DF92EF923C
:1010E000FF926B017C010E9444084B015C01C1141A
:1010F000D104E104F104B9F00E94440868197909A7
:101100008A099B09683E73408105910580F321E0BF
:10111000C21AD108E108F10888EE880E83E0981E13
:10112000A11CB11CE4CFFF90EF90DF90CF90BF9057
:10113000AF909F908F9008958F929F92AF92BF92A1
:10114000CF92DF92EF92FF920F931F93CF93DF9393
:101150006C017B018A0180910E01882309F45CC037
:101160008091D302882309F457C08091AE0280FF9A
:1011700005C08091E00082608093E000E801B12C1E
:101180008AEFA82E93E0892E2AE3922E209711F45D
:10119000BB20D9F10E94DF0681110AC0AA94AA20BF
:1011A000D9F161E070E080E090E00E946908EECF44
:1011B0008C171D0611F00CF08C2F9FB7F8948092BD
:1011C000E9002091E80025FD02C09FBFDFCF282F56
:1011D00030E0C21BD30BF701815020F041914093C6
:1011E000F100FACFE20EF31EBB2021F09092E8004E
:1011F000B12CEBCF8091E80085FDE7CF9092E8001D
:10120000BB24B394209709F3F3CF5D9884E68093D1
:10121000AD02101611063CF081E090E0F6019383D8
:10122000828310E000E0C801DF91CF911F910F9100
:10123000FF90EF90DF90CF90BF90AF909F908F90F6
:1012400008952D9A0895BC0190E080E00C946908FF
:101250008FB18095807F669B88601C9B8460089519
:10126000CF93C82F0E942809982F9C2381E09C13BC
:1012700080E0CF91089580E00C94A6068038910517
:10128000B8F460347105A0F420E191E061FD94E0D0
:1012900060FD990F62FD9295687F269FD001112411
:1012A000A80FAC52BD4F8C9140FF03C0892B8C938B
:1012B000089590958923FBCF2F923F924F925F9292
:1012C0006F927F928F929F92AF92BF92CF92DF9256
:1012D000EF92FF920F931F93CF93DF9300D000D034
:1012E000CDB7DEB77C018B01242F30E03C832B830C
:1012F00081E090E05C01A21AB30A190131942194B3
:101300003108220C331CB901600F711F41E0C70185
:101310000E943E09B8018B819C81681B790B41E0DA
:10132000C7010E943E0941E0B8018B819C818E0D6E
:101330009F1D0E943E0941E0B801C7012B813C81FD
:10134000821B930B0E943E0981E090E09A8389837F
:10135000D12CC12CB7FC0BC02B813C812150310911
:101360003C832B8332E0230E311CA20CB31C8FEF85
:10137000C81AD80A29813A812E5F3F4F3A832983C0
:10138000A20EB31E36016E0C7F1C41E08B809C8048
:10139000800E911EB401C3010E943E0927014C1822
:1013A0005D0841E0B401C2010E943E0941E04801EC
:1013B0008B819C81881A990AB401C3010E943E095D
:1013C00041E0B401C2010E943E094601800E911E17
:1013D00041E0B4016B807C806E0C7F1CC3010E94D5
:1013E0003E0941E0B40127012B813C81421A530A96
:1013F000C2010E943E0948018C189D0841E0B401D9
:10140000C3010E943E0941E0B401C2010E943E09AD
:101410008B819C81C816D9060CF49CCF0F900F903D
:101420000F900F90DF91CF911F910F91FF90EF9050
:10143000DF90CF90BF90AF909F908F907F906F90F4
:101440005F904F903F902F9008952F923F924F9230
:101450005F926F927F928F929F92AF92BF92CF9244
:10146000DF92EF92FF920F931F93CF93DF93EC01E4
:101470008B017A016901C61AD70AD7FE03C0D1943D
:10148000C194D10847018C1A9D0A97FE03C091941C
:10149000819491088C149D0454F49E2D8F2D790114
:1014A000292F382F9C2F8D2FE801092F182FEC168C
:1014B000FD0654F4902F812F8901292F382F9C2F5E
:1014C0008D2FE701E92EF82E17012C1A3D0A29016C
:1014D000401A510A57FE03C05194419451083101FA
:1014E00037FE03C08FEF681A780A759467948FEF00
:1014F000021713070CF481E0A82E880FBB08EC1626
:10150000FD06A4F041E0BE01C8018C149D0414F056
:10151000B801CE010E943E096418750877FE04C028
:101520000A0D1B1D620C731C2196E9CFDF91CF9130
:101530001F910F91FF90EF90DF90CF90BF90AF90F1
:101540009F908F907F906F905F904F903F902F90E3
:1015500008958F929F92AF92BF92CF92DF92EF92B7
:10156000FF920F931F93CF93DF936D3089F0C0905C
:10157000BE02D090BF026A30D1F41092BD02109228
:10158000BC0288E0C80ED11CD092BF02C092BE023D
:1015900081E090E0DF91CF911F910F91FF90EF904C
:1015A000DF90CF90BF90AF909F908F900895009163
:1015B000BC021091BD02E5E06E9FE0011124C45B06
:1015C000DE4F4801F12CF5E0E12CFF1629F0CE01A9
:1015D0000196FE01E490EC01B12CA12C4E2D41703E
:1015E000B6016A0D7B1DC4010E943E09E694FFEF1F
:1015F000AF1ABF0A88E0A816B10481F7F394EFEFA1
:101600008E1A9E0AF6E0FF12DECF0A5F1F4F10937C
:10161000BD020093BC02BCCF0F931F93CF93DF9307
:10162000FB01EA01A9012617370751F4C801C017C9
:10163000D1070CF4CE01DF91CF911F910F91089546
:1016400098012C1B3D0BDC01A61BB70B0E949422BA
:101650009A012E1B3F0B032E000C440B550B0E94CE
:10166000F41DCE01820F931FE6CF2F923F924F922F
:101670005F926F927F928F929F92AF92BF92CF9222
:10168000DF92EF92FF920F931F93CF93DF93CDB72B
:10169000DEB764970FB6F894DEBF0FBECDBF1C0156
:1016A000C0901601D09017012091120130911301C2
:1016B0003A832983E0901401F09015018091100184
:1016C000909111019E878D874090B8025090B90289
:1016D0006090BA027090BB02A301920160E070E0DA
:1016E00080EA90E40E94571E0E94401FCB018601B1
:1016F00029813A81A7016D857E850E940C0B049794
:101700009E838D83D1011596BA87A98744E0BC01D9
:10171000CD010E945C0980919F029091A002A0914E
:10172000A102B091A2028F87988BA98BBA8BD101AD
:101730005196BC87AB879101265F3F4F3C8B2B8B2B
:10174000C101099698878F8390E1290E311CC3014E
:10175000B2010E94401FAD81BE814D01BB0FAA089E
:10176000BB086C387F4F0CF0B2C000911E01109185
:101770001F01E0901A01F0901B0120911C01309193
:101780001D013A832983C0901801D0901901A3014B
:10179000920160E070E088E891E40E94571E0E9488
:1017A000401FCB01970149815A81B6010E940C0B61
:1017B000BC0164507109072E000C880B990B0E9424
:1017C000781F2F85388949895A890E94571E6B01D5
:1017D0007C010E94401F69837A838B839C8344E051
:1017E00069817A818B859C850E945C09C501B40161
:1017F0000E94781FA70196010E94581E20E030E049
:1018000040E05FE30E946C202B013C0120E030E0CF
:1018100040EC50E40E94571E0E94401F4B01C30140
:10182000B2010E94401F2B019B014F8158856D81A1
:101830007E8189859A850E94250A94014B895C895D
:10184000B2018F8198850E94250A2D813E814985AC
:101850005A85B4018B899C890E94250A20E030E0DA
:1018600040EE50E4C701B6010E94571E0E94401F7F
:101870006B019B01A101B2018F8198850E94250A0D
:101880009601A101B4018B899C890E94250A2981B6
:101890003A814B855C85B601C10164960FB6F89418
:1018A000DEBF0FBECDBFDF91CF911F910F91FF9093
:1018B000EF90DF90CF90BF90AF909F908F907F90F0
:1018C0006F905F904F903F902F900C94250AA3014A
:1018D000920160E070E088E891E40E94571E0E9447
:1018E000401FCB0129813A81A7016D857E855ECF9E
:1018F0004F925F926F927F92AF92BF92CF92DF92A0
:10190000EF92FF920F931F93CF93DF93C0E1D1E04B
:1019100081E0C032D80789F1C090B802D090B902F6
:10192000E090BA02F090BB02AE80BF806A817B81FA
:10193000072E000C880B990B0E94781FA7019601B7
:101940000E94581E0E94401F2B010C811D8168813E
:101950007981072E000C880B990B0E94781FA70134
:1019600096010E94581E0E94401FCB019501A201C2
:10197000B8010E94250A2896CBCFDF91CF911F9105
:101980000F91FF90EF90DF90CF90BF90AF907F903E
:101990006F905F904F900895CF92DF92EF92FF92F9
:1019A0006091200170912101072E000C880B990B8A
:1019B0000E94781F6B017C01209193023091940268
:1019C00040919502509196020E94C41E87FF08C064
:1019D000C0929302D0929402E0929502F092960205
:1019E00020E030E0A901609193027091940280910F
:1019F0009502909196020E94C41E87FF08C0109223
:101A000093021092940210929502109296022091E5
:101A10009302309194024091950250919602609108
:101A2000B8027091B9028091BA029091BB020E94F3
:101A3000571E6093B8027093B9028093BA029093D4
:101A4000BB02FF90EF90DF90CF900895CF92DF928E
:101A5000EF92FF9280E20E9430098823B1F023E3E5
:101A600033E343E75FE360919302709194028091C6
:101A70009502909196020E946C206093930270935D
:101A80009402809395029093960280E80E94300918
:101A9000C0909F02D090A002E090A102F090A2021C
:101AA0008823C9F120E030E040EA50E4C701B601E4
:101AB0000E94C41E87FF10C020E030E040E05FE3DA
:101AC000C701B6010E94581E60939F027093A00246
:101AD0008093A1029093A202809101019091020152
:101AE00097FF07C0109202011092010181E08093DC
:101AF000920280910101909102018539924034F067
:101B000084E992E09093020180930101FF90EF90AD
:101B1000DF90CF90089520E030E0A901C701B60121
:101B20000E9467201816C4F620E030E040E05FE332
:101B3000C701B6010E94571EC7CF6F927F928F9246
:101B40009F92AF92BF92CF92DF92EF92FF920F934C
:101B50001F93CF93DF938090B8029090B902A0902A
:101B6000BA02B090BB02C501B4010E94401F6C389C
:101B70007F4F0CF05CC00091160110911701C090CE
:101B80001201D0901301E0901401F0901501C09162
:101B90001001D0911101A501940160E070E080EA8C
:101BA00090E40E94571E0E94401FCB019601A7019E
:101BB000BE010E940C0B3C0100911E0110911F01FF
:101BC000E0901A01F0901B01C0911C01D0911D0101
:101BD000C0901801D0901901A501940160E070E057
:101BE00088E891E40E94571E0E94401FCB01970194
:101BF000AE01B6010E940C0B681A790A809120018F
:101C000090912101689EB001699E700D789E700DC3
:101C10001124072E000C880B990B0E94781F6093EB
:101C20008E0270938F028093900290939102809124
:101C3000C20284FD1BC08091C30284FF17C0809143
:101C40002001909121018230910584F001979093B9
:101C500021018093200181E08093C00280E4809381
:101C6000C0001092BF008EE38093D1008091C20229
:101C700086FD1BC08091C30286FF17C080912001A2
:101C8000909121018630910584F401969093210171
:101C90008093200181E08093C00280E48093C000A3
:101CA0001092BF008EE38093D100DF91CF911F91FE
:101CB0000F91FF90EF90DF90CF90BF90AF909F90EB
:101CC0008F907F906F900895089590E080E0089540
:101CD0008F929F92AF92BF920F931F93CF93DF93F8
:101CE000CDB7DEB7A1970FB6F894DEBF0FBECDBF5C
:101CF00019A2423008F44AE08E010F5D1F4F842E76
:101D0000912CB12CA12CA50194010E94261EE62F36
:101D1000B901CA01EA3044F5E05DD801EE938D01C6
:101D2000232B242B252B79F790E080E0109769F086
:101D3000FD0101900020E9F73197AF014A1B5B0BD1
:101D4000BD0184E297E00E949607A1960FB6F89431
:101D5000DEBF0FBECDBFDF91CF911F910F91BF901E
:101D6000AF909F908F900895E95CD7CF009769F06E
:101D7000FC0101900020E9F73197AF01481B590B96
:101D8000BC0184E297E00C94960790E080E008950F
:101D900020E030E040E053EC6091B8027091B9026D
:101DA0008091BA029091BB020E94C41E87FF33C08B
:101DB0001092B8021092B9021092BA021092BB02AD
:101DC0008091160190911701909315018093140151
:101DD00080911E0190911F0190931701809316012D
:101DE00090931D0180931C018091280190912901FD
:101DF0008D7F019789F40E94861D26E130E040E046
:101E000050E00E94F41D665D7F4F8F4F9F4F70938F
:101E10001F0160931E0108950E94861D2AE230E092
:101E200040E050E00E94F41D6A5E7F4F8F4F9F4F4D
:101E3000EECF0C94DE1D9F7720E030E040E252E4CC
:101E40000E94CE1E9B01AC0160E070E080E89FE341
:101E50000E94571E20E030E040E451E40C94D92069
:101E60004F925F926F927F928F929F92AF92BF92AA
:101E7000CF92DF92EF92FF920F931F93CF93DF9356
:101E800088E00E943009882369F0609122017091F6
:101E9000230180910001882309F43DC0653171055B
:101EA0000CF03DC084E00E943009811182C1609134
:101EB0008E0270918F0280919002909191029058C1
:101EC0002AE037ED43E25CE30E946C20209193020C
:101ED0003091940240919502509196020E94581EB2
:101EE0002AE037ED43EA5CE30E94571E60939302B9
:101EF00070939402809395029093960220E030E0D4
:101F0000A9010E94672018160CF4C2C21092C102E7
:101F100010929000E8C2693D2FEF72071CF2809189
:101F200092028111BFCF072E000C880B990B0E94E3
:101F3000781F0E941B0F20E030E046E154E40E942D
:101F40006C206B017C0126EF38E244E751E40E94EB
:101F5000672018162CF01092C102109290001FC03A
:101F600020E030E040E05FE3C701B6010E946C2052
:101F700020E034E244E759E40E94581EA70196018C
:101F80000E94CE1E0E94471F615071091092C1022B
:101F900080E4809390007093990060939800109271
:101FA00000018091220190912301019790932301D8
:101FB000809322016091200170912101072E000C75
:101FC000880B990B0E94781FF62EE72ED82EC92E6B
:101FD000C0919302D09194021091950200919602C3
:101FE00020E030E0A9010E94C41E87FDB7C220E0B6
:101FF00030E040EC50E46F2D7E2D8D2D9C2D0E9405
:10200000672020E030E0A901BE0118160CF4BBC225
:10201000812F902F0E94C41E8F2C9E2CAD2CBC2C87
:1020200087FDBAC020E030E040EC50E4BE01812FD3
:10203000902F0E9467207C2F6D2F912F18160CF483
:10204000B0C0802F272F362F492F582FB401C5013C
:102050000E94571E9F7720E030E040EC50E40E9441
:10206000CE1E9B01AC0160E070E080E89FE30E941F
:10207000571E4B015C012DEC3CEC4CEC5DE30E94E7
:10208000C41E87FF07C0ADEC8A2EACEC9A2EA92C9B
:10209000ADE3BA2EA50194016F2D7E2D8D2D9C2DC3
:1020A0000E946C209E01412F502F0E94581E2B0130
:1020B0003C01409293025092940260929502709279
:1020C000960280908E0290908F02A0909002B09025
:1020D000910220E030E0A901C501B4010E9467200F
:1020E0001816E4F520E030E040EA50E4C501B40100
:1020F0000E94CE1E9B01AC01C301B2010E94CE1E04
:102100006093930270939402809395029093960249
:102110006091010170910201072E000C880B990B50
:102120000E94781F2B013C01A50194016F2D7E2D8B
:102130008D2D9C2D0E946C2020E030E040E251E487
:102140000E94CE1E9B01AC01C301B2010E94571E2A
:102150000E94401F709302016093010120E030E073
:10216000A901C501B4010E94C41E20E030E040EA8C
:1021700050E487FD54C1DF91CF911F910F91FF90E3
:10218000EF90DF90CF90BF90AF909F908F907F9017
:102190006F905F904F90089570E060E090E080E075
:1021A00051CF802F812C912C20ECA22E30E4B32E25
:1021B00049CF60912201709123018091000181112A
:1021C00050C16C3E8FEF78070CF071CE8091920277
:1021D00081116DCE072E000C880B990B0E94781F81
:1021E0000E941B0F20E030E046E154E40E946C2086
:1021F0006B017C0126EF38E244E751E40E9467203E
:1022000018160CF033C120E030E040E05FE3C70176
:10221000B6010E946C2020E034E244E759E40E94B9
:10222000581EA70196010E94CE1E0E94471F6150B2
:1022300071091092C10280E480939000709399001C
:102240006093980081E08093000180912201909139
:102250002301019690932301809322016091200134
:1022600070912101072E000C880B990B0E94781F9A
:10227000F62EE72ED82EC92EC0919302D09194024B
:10228000109195020091960220E030E0A9010E9491
:10229000C41E87FD85C120E030E040EC50E46F2D86
:1022A0007E2D8D2D9C2D0E94672020E030E0A9011D
:1022B000BE0118160CF489C1812F902F0E94C41EF4
:1022C0008F2C9E2CAD2CBC2C87FDD5C020E030E09F
:1022D00040EC50E4BE01812F902F0E9467207C2F9C
:1022E0006D2F912F18160CF4CBC0802F272F362F6F
:1022F000492F582FB401C5010E94571E9F7720E037
:1023000030E040EC50E40E94CE1E9B01AC0160E046
:1023100070E080E89FE30E94571E4B015C012DECAA
:102320003CEC4CEC5DE30E94C41E87FF07C04DEC03
:10233000842E4CEC942EA92C4DE3B42EA5019401CF
:102340006F2D7E2D8D2D9C2D0E946C209E01412F86
:10235000502F0E94581E2B013C0140929302509234
:102360009402609295027092960280908E029090F4
:102370008F02A0909002B090910220E030E0A9017D
:10238000C501B4010E9467201816E4F520E030E092
:1023900040EA50E4C501B4010E94CE1E9B01AC018D
:1023A000C301B2010E94CE1E609393027093940207
:1023B00080939502909396026091010170910201C1
:1023C000072E000C880B990B0E94781F2B013C01F3
:1023D000A50194016F2D7E2D8D2D9C2D0E946C20CA
:1023E00020E030E040EA50E40E94CE1E9B01AC01A8
:1023F000C301B2010E94571E0E94401F7093020148
:102400006093010120E030E0A901C501B4010E9400
:10241000C41E87FFB0CE20E030E040E251E4C501A9
:10242000B4010E94CE1E9B01AC0160919302709199
:10243000940280919502909196020E94571E60939B
:1024400093027093940280939502909396028091E8
:102450000101909102010196909302018093010184
:102460008ACE683271050CF022CDB0CE1092C10236
:1024700010929000E7CE70E060E090E080E036CF10
:10248000802F812C912CE0ECAE2EF0E4BF2E2ECFCD
:102490006091200170912101615F7F4F072E000C38
:1024A000880B990B0E94781F6B017C0120E030E0C3
:1024B00040E05FE30E946C2020E034E244E759E40E
:1024C0000E94581EA70196010E94CE1E0E94471F1F
:1024D000615071091092C10280E480939000709362
:1024E00099006093980080910101909102019C01F4
:1024F0002F5F3F4F30930201209301012091920200
:102500002223A9F00296909302018093010166E0D4
:1025100070E00E947A221092C00260FD1CC080E42C
:102520008093C0001092BF008DE48093D100809111
:102530000101909102018439924009F01CCE8091F2
:102540009202882309F417CE109292021092C002D0
:102550001092C00010CE1092C000E9CF20E030E011
:10256000A901BE01812F902F0E94C41E812C912CA5
:10257000B0E8AB2EBFE3BB2E87FD8CCD812C912C18
:10258000A12CB12C4FCD812F902F0E94C41E87FD0E
:102590007ACD812C912C20ECA22E30E4B32E42CDAA
:1025A00020E030E0A901BE01812F902F0E94C41EBF
:1025B000812C912C50E8A52E5FE3B52E87FDBECE71
:1025C000812C912CA12CB12C81CE812F902F0E9497
:1025D000C41E87FDACCE812C912C80ECA82E90E4FB
:1025E000B92E74CEAF92BF92CF92DF92EF92FF924C
:1025F0000F931F93CF93DF93C0900101D0900201FE
:10260000C60166E070E00E947A22A62EC6016AEF3B
:102610007FEF0E947A227B01EB01C058DF4FAC0EA6
:10262000BD2EB11CCA15DB0574F410E000E041E0DA
:10263000B801CE010E943E090F5F1F4F0630110501
:10264000B1F72196EFCF87E0C816D104ACF0C601F0
:1026500066E070E00E947A228C018FE7E80EF11CA0
:10266000D0E0C0E00C171D0739F041E0BE01C70102
:102670000E943E092196F6CFC0902001D090210102
:102680000D2C000CEE08FF084AE0C701B601F7FE6A
:102690000DC06DE284E297E00E94A90A66277727C1
:1026A000CB016C197D098E099F094AE00E94680ED2
:1026B00043E063E070E08BE090E00E945C09609191
:1026C00022017091230180910001882309F4C0C088
:1026D000072E000C880B990B0E94781F20E030E039
:1026E00040E252E40E94581E20E030E040EA52E40A
:1026F0000E94CE1E2BED3FE049E450E40E946C2086
:1027000020E030E044EB52E40E94571E6B017C0154
:102710000E94C91E20E030E040E450E40E946C209A
:1027200020E030E040E351E40E94581E60939B0299
:1027300070939C0280939D0290939E02C701B60104
:102740000E94292120E030E040E450E40E946C2007
:1027500020E030E040E450E40E94581E609397026D
:10276000709398028093990290939A02C090970276
:10277000D0909802E0909902F0909A0220E030E028
:10278000A901C701B6010E94672020E030E040E0C7
:102790005FE387FD7FC0C701B6010E94581E0E94FB
:1027A000401FEB0120E030E040EA5FE360919B02D4
:1027B00070919C0280919D0290919E020E94571EF2
:1027C0006B017C0120E030E0A9010E94672020E03D
:1027D00030E040E05FE387FD62C0C701B6010E94C0
:1027E000581E0E94401FC034D10508F05DC0CB01C7
:1027F00004968438910508F057C09B0177FF02C00A
:1028000030E020E06B5F7F4F6138710514F060E8C5
:1028100070E0621BAE014770552781E001C0880F50
:102820004A95EAF793E0D595C7959A95E1F7D6953D
:10283000DC2FCC27D795C795C20FD31FCC52DD4FC5
:10284000615090F19991FE013197982B9083F8CFC8
:10285000719561957109072E000C880B990B0E94E8
:10286000781F20E030E040E252E40E94581E20E051
:1028700030E040EA52E40E94CE1E2BED3FE049E4F6
:1028800050E40E946C2020E030E044EB52E40E94CF
:10289000581E3CCFC701B6010E94571E80CFC7010A
:1028A000B6010E94571E9DCFDF91CF911F910F91CE
:1028B000FF90EF90DF90CF90BF90AF9008951F9260
:1028C0000F920FB60F9211248F939F938091E10086
:1028D0009091E100937F9093E10083FF0FC01092ED
:1028E000E90091E09093EB001092EC0092E390935A
:1028F000ED001092D30298E09093F00082FF22C086
:1029000093E09093E9009091F200992319F09AE3F3
:102910009093E8009091AD02992341F09091AD021F
:1029200091509093AD02911101C05D9A9091D202A5
:10293000992341F09091D20291509093D20291113B
:1029400001C0289A84FF18C08091E2008E7E8160C9
:102950008093E2008091E1008F7E8093E10080917E
:10296000AE028E7E80618093AE029F918F910F9018
:102970000FBE0F901F90189580FFF7CF8091E20057
:102980008E7E80618093E2008091E1008E7E809354
:10299000E1008091AE028E7E8160E5CF1F920F92A2
:1029A0000FB60F921124CF92DF92EF92FF920F9306
:1029B0001F932F933F934F935F936F937F938F93C7
:1029C0009F93AF93BF93EF93FF93CF93DF93CDB7D5
:1029D000DEB76C97DEBFCDBF1092E9008091E800B2
:1029E00083FF25C068E0CE0145960E94890782EFEB
:1029F0008093E8008D8987FF39C09091E80090FFAF
:102A0000FCCF982F907609F034C19E894F89588D5C
:102A10002F89F88C911131C0803861F58091AF0217
:102A20008093F1001092F1008EEF8093E8006C9695
:102A30000FB6F894DEBF0FBECDBFDF91CF91FF91EF
:102A4000EF91BF91AF919F918F917F916F915F9126
:102A50004F913F912F911F910F91FF90EF90DF9039
:102A6000CF900F900FBE0F901F9018959EEF9093F0
:102A7000E800C7CF1092F100D5CF913059F4811101
:102A8000D3CF4130510581F68091AF028D7F809385
:102A9000AF02CACF933049F48111C6CF41305105FE
:102AA00019F68091AF028260F2CF953041F48091A7
:102AB000E80080FFFCCF20682093E300B5CF96307C
:102AC00009F0A9C00B8D1C8D22E01092E900109234
:102AD000AB021092AA02F2122EC01092A90210921A
:102AE000A8020E9458071F8299E09983FA8291E018
:102AF0009E8390EA98879AEF99872091AA02309155
:102B0000AB02275F3F4F3C832B838D831092E900FC
:102B10001092AB021092AA021093A9020093A8028D
:102B200049E050E0BE016F5F7F4F80E00E943207B6
:102B30000E94580779CF1093A9020093A8020E941F
:102B4000F006DC0112960D911C910115110509F496
:102B500051C1D801ED91FC910480F581E02DBE01B9
:102B60006B5E7F4FC8010995009709F03EC1F801DF
:102B700000851185EACFF3E0FF120EC08F8988230C
:102B800009F440C0823061F440E860E180EB96E0F7
:102B90000E944A17811148CF81E28093EB0047CF12
:102BA000813029F440E86BE084EA96E0F1CF83308D
:102BB00099F70E94F006DC011296ED90FC908E01D0
:102BC0000F5F1F4F6801E114F10479F0D701ED9117
:102BD000FC910680F781E02DB801C7010995080F27
:102BE000111DF701E084F184EECFD8011C92F601AB
:102BF00001900020E9F73197BF016C197D0940E091
:102C0000C601C6CF6EE876E0FB01449150E080E853
:102C10000E94320709CF973009F4BECF983021F4D3
:102C200081E08093F10000CF993009F0FDCE8370F0
:102C300009F0B2CFEFE3F1E081E031E096E32191DA
:102C4000222371F08093E9003093EB00DF011197AC
:102C50002C912093EC009093ED008F5F873079F7F3
:102C60008EE78093EA001092EA008F898093D30266
:102C7000DBCE8B8D9C8D1092E9001092AB021092EE
:102C8000AA029093A9028093A802898D811192C013
:102C90008E899D89913A49F4813209F07DCF47E0D0
:102CA00050E067E071E080E0B3CF913209F074CF7B
:102CB000833269F48F89988DB0E0A0E0809303019E
:102CC00090930401A0930501B0930601ADCE80322C
:102CD00069F48091E80082FFFCCF67E087E091E033
:102CE0000E9489078BEF8093E8009ECE823209F024
:102CF0009BCE8F8980930E01EEEFFFE78591949133
:102D00008B3F9C4D51F1E0E0F8E0809107019091FC
:102D10000801A0910901B0910A01803B9440A105EE
:102D2000B105F1F480910E0180FD1AC0EE3F8AE0FA
:102D3000F80789F587E797E79183808380916000A2
:102D40008093AC0288E19BE00FB6F894A89580933D
:102D500060000FBE9093600067CEEEEFFAE0D5CF33
:102D6000808191818737974709F05ECEA895809141
:102D700060008861809360008091AC028093600065
:102D8000EE3F2AE0F20789F08091FE0A9091FF0A57
:102D90009183808349CE808191818737980751F252
:102DA0009093FF0A8093FE0AC5CF1092FF0A1092FB
:102DB000FE0A3ACE0E94F006DC0112960D911C919B
:102DC0000115110509F4E8CED801ED91FC910190AF
:102DD000F081E02DBE016B5E7F4FC8010995811126
:102DE00023CEF80100851185EBCF181619060CF4D7
:102DF0001BCED2CEF1E0FF12BECE62E976E004CF68
:102E00001F920F920FB60F9211242F933F938F931F
:102E10009F93AF93BF938091B0029091B102A09124
:102E2000B202B091B3023091A30223E0230F2D37F9
:102E300058F50196A11DB11D2093A3028093B00205
:102E40009093B102A093B202B093B3028091A40216
:102E50009091A502A091A602B091A7020196A11D92
:102E6000B11D8093A4029093A502A093A602B093F3
:102E7000A702BF91AF919F918F913F912F910F909A
:102E80000FBE0F901F90189526E8230F0296A11DE4
:102E9000B11DD2CFEF92FF920F931F93CF93DF9389
:102EA000F82E192FE62E042F81E0860F880F0E943E
:102EB000040783E00E940407CF2DD12FEC0EFD2ED6
:102EC000F11CCE15DF05B9F007FF13C0FE01849198
:102ED0000E940407182F80E00E9404078123219696
:102EE0008111EFCFDF91CF911F910F91FF90EF9064
:102EF00008958881EDCF81E0F5CFE4EDF6E013820F
:102F0000128288EE93E0A0E0B0E084839583A683EC
:102F1000B78389E491E0918380838FEF9FEF95875A
:102F20008487E4E2F7E0138212828BE591E09183DB
:102F300080830895CF93DF93CDB7DEB760970FB648
:102F4000F894DEBF0FBECDBF789484B5826084BD97
:102F500084B5816084BD85B5826085BD85B581609D
:102F600085BD80916E00816080936E00109281001B
:102F700080918100826080938100809181008160D6
:102F80008093810080918000816080938000809197
:102F90009100826080939100809191008160809384
:102FA0009100809190008160809390008091C10099
:102FB00084608093C1008091C10082608093C100D1
:102FC0008091C10081608093C1008091C3008160C5
:102FD0008093C3008091C00082608093C000809184
:102FE000C20081608093C20080917A0084608093E7
:102FF0007A0080917A00826080937A0080917A00D2
:10300000816080937A0080917A00806880937A0052
:103010001092D3021092AF021092AE028091D700AC
:1030200081608093D70080EA8093D80089B5806161
:1030300089BD89B5826089BD09B400FEFDCF61E01C
:1030400070E080E090E00E9469088091D8008F7C59
:1030500080618093D8008091E000807F8093E000C1
:103060008091E1008E7E8093E1008DE08093E2000C
:10307000559A209A8FEF9FEF9093E1068093E00698
:1030800080E180930F01109290008AE0809391007C
:103090001092C00088E08093C1001092C30010928B
:1030A000BF001092CF0081EC80937C0085B1806FCF
:1030B00085B984B1877E84B984B1876E84B95E9AFC
:1030C0005F988AB1806D8AB9769A6E9881B3806F65
:1030D00081BB899880B38D7080BB80E58CBD81E019
:1030E0008DBD85E090E00E9423095F9A85E090E025
:1030F0000E9423095E985C98E1ECF6E08EEC96E085
:1031000024912EBD00000DB407FEFDCF31968E1721
:103110009F07B1F75C9A81E8809364008091650015
:103120008160809365000E943B0980E80E9430091D
:103130008823A9F05C9885EA8EBD00000DB407FED7
:10314000FDCF5C9A2E982F982D9880916400806214
:103150008093640081E083BF889513BEFCCF84E038
:103160000E943009882309F448C02D9884E80E9401
:1031700030098823E1F00E94210988EC90E00E9448
:1031800023092F9882E090E00E94DE1D8F3F29F0F6
:103190006FEF82E090E00E94E61D84EF91E00E94D4
:1031A00023092F9A84E80E9430098111FBCF84E122
:1031B0000E9430098823E1F00E94210988EC90E008
:1031C0000E9423092E9882E090E00E94DE1D882351
:1031D00029F060E082E090E00E94E61D84EF91E03B
:1031E0000E9423092E9A84E10E9430098111FBCFAD
:1031F00088EC90E00E942309B2CF0E94210982E06E
:1032000090E00E94190F882309F492C03E9A3F9AD9
:1032100081E090E00E94190F182F147081FF10C0F8
:1032200011112E98F1EFEF2EFF24FA9480E40E9402
:103230003009882309F47FC02E9A2F9A0E94210911
:1032400082E390E00E9423090E9428098111F8CFAF
:103250001092BD021092BC021092BF021092BE02E8
:10326000809164008E7F8093640080917A008064F6
:1032700080937A0080917A0086FDFCCF00917800DF
:10328000109179000E944408AB01BC01C801B0E074
:10329000A0E0DC01992788278C019D01040F151FF0
:1032A000261F371FC901B8012091640021602093B7
:1032B0006400611571058105910511F00E94D51D0D
:1032C0000E94861D26E130E040E050E00E94F41D9F
:1032D000665D7F4F8F4F9F4F70931F0160931E015C
:1032E00058E0A52EB12CEE24E394F12C79E0872E42
:1032F000912C33E0C32ED12C40E4242E312C8FB7F7
:10330000F8944091B0025091B1026091B202709174
:10331000B3028FBF8091B602882309F469C010926E
:10332000B60280E090E0892B51F30E940000E1CFCB
:103330003E983F986DCF112331F004E0E016F10480
:1033400011F42E9A2F9881E00E94A60600E128E54C
:1033500040ED5AE0B70184E190E00E94EB050E9445
:103360003B098FE090E00E9423092FEFE21AF20A56
:1033700039E1E316F10409F059CF112311F02F9A26
:103380002D9880E991E00E9423090E94210981E0A3
:1033900090E00E94190F80FF53CF8AE090E00E94D6
:1033A000190F9FEF980F9E3F08F04ACF22E330E0BD
:1033B0003093BD022093BC0228E330E03093BF027B
:1033C0002093BE020BE010E0682F84E297E00E9499
:1033D000A90AC8010E94190F0F5F1F4F0131110583
:1033E00099F70E943B0988EE93E00E94230928CFB9
:1033F0008091B702142F181B812F90910F0119177C
:1034000048F48F5F891708F08CCF81E083BF8895DF
:1034100013BE87CF81E08093B6024093B7028091BC
:10342000B4029091B50201969093B5028093B402D4
:103430008091C3028093C2020E9428098093C30234
:103440008091C102882339F081508093C10281119B
:1034500002C0109290008091C002882339F0815000
:103460008093C002811102C01092C00080E0E4EDA0
:10347000F2E081118FEF00248193819381938193F6
:103480000394D1F71092BF021092BE021092BD02B7
:103490001092BC0280912801909129018130910500
:1034A00009F47AC034F4892B09F463C00E943B0903
:1034B00038CF8230910509F469C20397B9F783EEDA
:1034C00091E00E94B60E06E410E01093BD02009356
:1034D000BC021092BF021092BE028CEE91E00E94DC
:1034E000B60E1093BD020093BC028AE090E0909368
:1034F000BF028093BE0283EF91E00E94B60E0E944D
:10350000780C90E080E00E94350B20E030E040E84D
:103510005FE36091B8027091B9028091BA02909114
:10352000BB020E94571E6093B8027093B902809349
:10353000BA029093BB020E94C80E88E00E94300934
:10354000882321F0109229011092280184E00E9422
:103550003009882309F4AACF109224011092250182
:103560001092260110922701F0922901E092280181
:103570009DCF0E949D0D0E94300F0E94260D0E943B
:10358000CC0C0E94F2120E94780C90E080E00E9425
:10359000350B0E94C80E8ACFE091C402F091C5029B
:1035A000E730F10508F082CFE852F54E0C948E22F8
:1035B000DF1A151B431B6D1BBD1B181C4C1C0E94E6
:1035C000780C90E080E00E94350B83E691E00E9449
:1035D000B60E20E030E040E85FE360912401709196
:1035E000250180912601909127010E94581E609329
:1035F000240170932501809326019093270120E0F8
:1036000030E043E353E40E94672018160CF04ECFDD
:10361000F092C502E092C40210922401109225019A
:10362000109226011092270141CF0E94F2120E94AF
:10363000780C90E080E00E94350B0E94300F0E94D1
:10364000260D0E94CC0C0E94C80E1092BD02109252
:10365000BC02B092BF02A092BE0280E791E00E943D
:10366000B60E80912201909123014E973CF022E00A
:1036700030E03093C5022093C40218CFF092C50207
:10368000E092C40213CF0E94F2120E94780C90E0E4
:1036900080E00E94350B0E94300F0E94260D0E9490
:1036A000CC0C0E94C80E1092BD021092BC02B092C7
:1036B000BF02A092BE0280E891E00E94B60E0E9476
:1036C0003B098091220190912301833E9F4F7CF61C
:1036D000D092C502C092C402E9CE0E94F2120E94AA
:1036E000780C90E080E00E94350B0E94300F0E9421
:1036F000260D0E94CC0C0E94C80ED092BD02C09232
:10370000BC029092BF028092BE028BE891E00E94C0
:10371000B60E1092BD021092BC0281E190E090932F
:10372000BF028093BE028DE991E00E94B60E20E0B8
:1037300030E040E85FE360912401709125018091C1
:103740002601909127010E94581E609324017093D6
:103750002501809326019093270120E030E043E388
:1037600053E40E94672004E010E018160CF09ECE8F
:103770001093C5020093C4024FCF0E94F2120E9420
:10378000780C90E080E00E94350B0E949D0D0E9415
:10379000300F0E94260D0E94CC0C0E94C80E20E023
:1037A00030E040E85FE36091240170912501809151
:1037B0002601909127010E94581E60932401709366
:1037C00025018093260190932701809120019091FB
:1037D00021011092BD021092BC029092BF02809211
:1037E000BE0202979CF483EB91E00E94B60E109209
:1037F000BD021092BC0222E130E03093BF02209360
:10380000BE0286EC91E00E94B60E50CE86ED91E0AD
:103810000E94B60E809120019091210106970CF430
:1038200045CE85E090E09093C5028093C402F4CE2B
:103830000E94F2120E94780C90E080E00E94350B0A
:103840000E949D0D0E94300F0E94260D0E94CC0CFC
:103850000E94C80E20E030E040E85FE36091240160
:103860007091250180912601909127010E94581E98
:103870006093240170932501809326019093270182
:1038800020E030E04CE652E40E94672018160CF06D
:103890000DCE06E010E06CCF0E94780C90E080E046
:1038A0000E94350B0E949D0D0E94300F0E94260D34
:1038B0000E94CC0C0E94C80E80E1EEE2F1E0DE0135
:1038C000119601900D928A95E1F720E030E044E3F3
:1038D00053E460912401709125018091260190911B
:1038E00027010E94CE1E0E94401F8B01000F111F56
:1038F0001092BD021092BC021092BF021092BE0242
:10390000F801EE0FFF1F21E030E02C0F3D1FE20F0A
:10391000F31F808191810E94B60E1092BD02109219
:10392000BC02B092BF02A092BE02F8013196EE0F27
:10393000FF1F81E090E08C0F9D1FE80FF91F808131
:1039400091810E94B60E20E030E040E85FE3609194
:1039500024017091250180912601909127010E94F8
:10396000581E609324017093250180932601909343
:103970002701053011050CF499CDF0922101E09258
:103980002001109229011092280190CD80E40E941C
:103990003009882329F0D0922901C092280186CDD0
:1039A00040902401509025016090260170902701DD
:1039B00020E030E048E453E4C301B2010E946720F4
:1039C00018169CF520E030E848EC53E4C301B2013E
:1039D0000E94C41E87FF29C0309215012092140155
:1039E00082E390E0909317018093160190931D015C
:1039F00080931C0104E420E84EEC56E070E060E0A7
:103A000090E080E00E94EB0520E030E040E85FE3DA
:103A1000C301B2010E94581E6093240170932501D6
:103A2000809326019093270141CD20E030E048ECBF
:103A300053E4C301B2010E94672018164CF410929F
:103A40002401109225011092260110922701A3CF84
:103A500000E128E540ED5AE068E170E084E190E0A3
:103A60000E94EB05C301B2010E94401FCB010E94DE
:103A7000350BCACF8F929F92AF92BF92CF92DF92B7
:103A8000EF92FF92CF93DF93EC01688179818A8175
:103A90009B81611571058105910521F464E279ED41
:103AA0008BE597E02DE133EF41E050E00E94F41DFB
:103AB00049015A019B01AC01A7EAB1E40E94131E1F
:103AC0006B017C01ACEEB4EFA50194010E94211EB4
:103AD000C60ED71EE81EF91EF7FE06C081E0C81A02
:103AE000D108E10880E8F80AC882D982EA82FB821C
:103AF000C701B6019F77DF91CF91FF90EF90DF90E4
:103B0000CF90BF90AF909F908F9008958F929F928B
:103B1000AF92BF92CF92DF92EF92FF9260912A0113
:103B200070912B0180912C0190912D0161157105EF
:103B30008105910521F464E279ED8BE597E02DE1B3
:103B400033EF41E050E00E94F41D49015A019B010E
:103B5000AC01A7EAB1E40E94131E6B017C01ACEE3C
:103B6000B4EFA50194010E94211EC60ED71EE81EC7
:103B7000F91EF7FE06C081E0C81AD108E10880E806
:103B8000F80AC0922A01D0922B01E0922C01F09207
:103B90002D01C701B6019F77FF90EF90DF90CF9086
:103BA000BF90AF909F908F90089560932A0170937B
:103BB0002B0180932C0190932D010895F999FECF4C
:103BC00092BD81BDF89A992780B50895262FF9995D
:103BD000FECF1FBA92BD81BD20BD0FB6F894FA9AF0
:103BE000F99A0FBE01960895052E97FB1EF40094D6
:103BF0000E940B1E57FD07D00E94261E07FC03D013
:103C00004EF40C940B1E50954095309521953F4FE6
:103C10004F4F5F4F089590958095709561957F4FB8
:103C20008F4F9F4F08950E94481EA59F900DB49FEF
:103C3000900DA49F800D911D11240895B7FF0C9441
:103C4000131E0E94131E821B930B0895A1E21A2ECD
:103C5000AA1BBB1BFD010DC0AA1FBB1FEE1FFF1F30
:103C6000A217B307E407F50720F0A21BB30BE40B80
:103C7000F50B661F771F881F991F1A9469F76095C7
:103C80007095809590959B01AC01BD01CF01089581
:103C9000A29FB001B39FC001A39F700D811D11248D
:103CA000911DB29F700D811D1124911D08955058D2
:103CB000BB27AA270E946F1E0C9419200E94E01FA8
:103CC00038F00E94E71F20F039F49F3F19F426F4E2
:103CD0000C94DD1F0EF4E095E7FB0C94D71FE92F41
:103CE0000E943E2058F3BA176207730784079507AE
:103CF00020F079F4A6F50C9460200EF4E0950B2EDC
:103D0000BA2FA02D0B01B90190010C01CA01A0012D
:103D10001124FF27591B99F0593F50F4503E68F188
:103D20001A16F040A22F232F342F4427585FF3CFC9
:103D3000469537952795A795F0405395C9F77EF49A
:103D40001F16BA0B620B730B840BBAF09150A1F0E3
:103D5000FF0FBB1F661F771F881FC2F70EC0BA0F69
:103D6000621F731F841F48F4879577956795B795F1
:103D7000F7959E3F08F0B0CF9395880F08F09927EC
:103D8000EE0F9795879508950E94B31F08F481E080
:103D900008950E94F01FE3950C942A200E94E21ED1
:103DA0000C9419200E94E71F58F00E94E01F40F079
:103DB00029F45F3F29F00C94D71F51110C94612016
:103DC0000C94DD1F0E943E2068F39923B1F3552324
:103DD00091F3951B550BBB27AA276217730784071E
:103DE00038F09F5F5F4F220F331F441FAA1FA9F3B4
:103DF00035D00E2E3AF0E0E832D091505040E695A2
:103E0000001CCAF72BD0FE2F29D0660F771F881F02
:103E1000BB1F261737074807AB07B0E809F0BB0BF5
:103E2000802DBF01FF2793585F4F3AF09E3F510509
:103E300078F00C94D71F0C9461205F3FE4F3983E18
:103E4000D4F3869577956795B795F7959F5FC9F7F2
:103E5000880F911D9695879597F90895E1E0660F73
:103E6000771F881FBB1F621773078407BA0720F0EC
:103E7000621B730B840BBA0BEE1F88F7E095089555
:103E80000E94471F6894B1110C94612008950E940C
:103E9000462088F09F5798F0B92F9927B751B0F076
:103EA000E1F0660F771F881F991F1AF0BA95C9F7BE
:103EB00014C0B13091F00E946020B1E008950C94DC
:103EC0006020672F782F8827B85F39F0B93FCCF38F
:103ED000869577956795B395D9F73EF4909580953B
:103EE000709561957F4F8F4F9F4F0895E89409C05B
:103EF00097FB3EF490958095709561957F4F8F4F1D
:103F00009F4F9923A9F0F92F96E9BB279395F69532
:103F1000879577956795B795F111F8CFFAF4BB0FB0
:103F200011F460FF1BC06F5F7F4F8F4F9F4F16C014
:103F3000882311F096E911C0772321F09EE8872F9E
:103F4000762F05C0662371F096E8862F70E060E05A
:103F50002AF09A95660F771F881FDAF7880F9695D3
:103F6000879597F90895990F0008550FAA0BE0E877
:103F7000FEEF16161706E807F907C0F0121613062B
:103F8000E407F50798F0621B730B840B950B39F46B
:103F90000A2661F0232B242B252B21F408950A26D1
:103FA00009F4A140A6958FEF811D811D089597F911
:103FB0009F6780E870E060E008959FEF80EC0895CF
:103FC00000240A94161617061806090608950024F8
:103FD0000A94121613061406050608950C94DD1FA4
:103FE0000E944620D8F3E894E0E0BB279F57F0F00A
:103FF0002AED3FE049EC06C0EE0FBB0F661F771FAE
:10400000881F28F0B23A62077307840728F0B25A73
:10401000620B730B840BE3959A9572F7803830F43A
:104020009A95BB0F661F771F881FD2F790480C9494
:104030006D21092E0394000C11F4882352F0BB0F5C
:1040400040F4BF2B11F460FF04C06F5F7F4F8F4FB0
:104050009F4F0895EF93E0FF07C0A2EA2AED3FE0EB
:1040600049EC5FEB0E946F1E0E9419200F90039491
:1040700001FC9058ECEAF0E00C94A02157FD905818
:10408000440F551F59F05F3F71F04795880F97FB1C
:10409000991F61F09F3F79F08795089512161306D6
:1040A0001406551FF2CF4695F1DF08C01616170605
:1040B0001806991FF1CF869571056105089408953A
:1040C000E894BB2766277727CB0197F908950E94CC
:1040D000B31F08F48FEF08950E947F200C941920DD
:1040E0000E94E01F38F00E94E71F20F0952311F096
:1040F0000C94D71F0C94DD1F11240C9461200E9496
:104100003E2070F3959FC1F3950F50E0551F629FBD
:10411000F001729FBB27F00DB11D639FAA27F00D20
:10412000B11DAA1F649F6627B00DA11D661F829F47
:104130002227B00DA11D621F739FB00DA11D621F2C
:10414000839FA00D611D221F749F3327A00D611D49
:10415000231F849F600D211D822F762F6A2F11242B
:104160009F5750409AF0F1F088234AF0EE0FFF1F5E
:10417000BB1F661F771F881F91505040A9F79E3FB5
:10418000510580F00C94D71F0C9461205F3FE4F33D
:10419000983ED4F3869577956795B795F795E7950B
:1041A0009F5FC1F7FE2B880F911D9695879597F914
:1041B0000895FA01EE0FFF1F309621053105A1F198
:1041C0006115710561F48038BFE39B0749F168947C
:1041D0009038810561F08038BFEF9B0741F099234B
:1041E0004AF5FF3FE1053105210519F1E8940894EE
:1041F000E795D901AA2329F4AB2FBE2FF85FD0F39E
:1042000010C0FF5F70F4A695E0F7F73950F019F091
:10421000FF3A38F49F779F930DD00F9007FC90588A
:10422000089546F00C94DD1F60E070E080E89FE3A5
:1042300008954FE79F775F934F933F932F930E948B
:10424000FE212F913F914F915F910E946C200C9421
:1042500039219F930E94F01F0F9007FCEE5F0C9492
:104260002A2029F416F00C94D71F0C9460200C948B
:10427000DD1F0E944620A8F39638A0F707F80F929A
:10428000E8942BE33AEA48EB5FE70E9482200F9222
:104290000F920F924DB75EB70F920E944622EAEC42
:1042A000F0E00E9479214F915F91EF91FF91E595A8
:1042B000EE1FFF1F49F0FE57E0684427EE0F441F32
:1042C000FA95E1F74195550B0E94C0210F9007FE2A
:1042D0000C94B42108959F3F31F0915020F48795BC
:1042E00077956795B795880F911D9695879597F95E
:1042F0000895DF93CF931F930F93FF92EF92DF9276
:104300007B018C01689406C0DA2EEF010E947F20A9
:10431000FE01E894A5912591359145915591A6F31B
:10432000EF010E946F1EFE019701A801DA9469F760
:10433000DF90EF90FF900F911F91CF91DF91089543
:104340009F938F937F936F93FF93EF939B01AC01A8
:104350000E946C20EF91FF910E9479212F913F9153
:104360004F915F910C946C209B01AC0160E070E078
:1043700080E89FE30C94CE1E0C94D71F0C946B2105
:104380000E944620D8F39923C9F3940F511DA3F33B
:104390009150504094F059F0882332F0660F771F07
:1043A000881F91505040C1F79E3F51052CF7880F50
:1043B000911D9695879597F908955F3FACF0983ECB
:1043C0009CF0BB27869577956795B79508F4B16003
:1043D0009395C1F7BB0F58F711F460FFE8CF6F5FFB
:1043E0007F4F8F4F9F4FE3CF0C94612016F00C94BA
:1043F0006B210C94DD1F68940C94D71F0E944620FB
:10440000A8F39923C1F3AEF3DF93CF931F930F93D8
:10441000FF92C92FDD2788232AF02197660F771F87
:10442000881FDAF720E030E040E85FEB9FE388394F
:1044300020F0803E38F021968F770E94581EE2EFE0
:10444000F0E004C00E94581EEFE1F1E00E947921E3
:104450008B01BE01EC01FB2E6F5771097595771F1B
:10446000880B990B0E94781F28E132E741E35FE354
:104470000E947F20AF2D9801AE01FF900F911F91F8
:10448000CF91DF910E946F1E0C941920FA01DC017C
:10449000AA0FBB1F9B01AC01BF5728F4222733276B
:1044A0004427507820C0B75190F4AB2F0024469594
:1044B00037952795011CA395D2F3002071F0220FA8
:1044C000331F441FB395DAF30ED00C94571E61309E
:1044D0007105A0E88A07B94630F49B01AC01662754
:1044E000772788279078309621F020833183428384
:1044F0005383089597FB072E16F4009407D077FD99
:1045000009D00E94A32207FC05D03EF49095819526
:104510009F4F0895709561957F4F0895EE0FFF1F8F
:104520000590F491E02D09940E94481E332312F463
:104530008A1B9B0B0C949E220E94481EB7FF089575
:10454000821B930B0895AA1BBB1B51E107C0AA1F36
:10455000BB1FA617B70710F0A61BB70B881F991F24
:104560005A95A9F780959095BC01CD010895F894CE
:02457000FFCF7B
:10457200019402FFFFFFFF00E100000000000010B5
:1045820000008000180018008000000118000000E0
:104592000100D8FF0000A0C1020001000000FE01DE
:1045A200130228023502460256026A027E0200C146
:1045B200808100000000000000C3079C08E407D9C6
:1045C200072A08E807060800000000A90A960765FE
:1045D2000E640E48656C6C6F20546865726521002C
:1045E200486F6C64204220746F20706564616C00B7
:1045F2004E6F7720686F6C64204100205E206C65EE
:1046020074277320796F75206B6E6F7700776869F6
:10461200636820627574746F6E20746F20707265A7
:1046220073730075736520646F776E20616E64200A
:10463200726967687400746F2073776974636820A5
:1046420067656172730054727920367468206765F9
:104652006172004172647542696B65004120706C41
:1046620061790042207475746F7269616C005468DC
:10467200652068696768657220746865206765618E
:10468200722C007468652066617374657220796F9C
:1046920075276C6C20676F0049742077696C6C20F9
:1046A200616C736F00757365206D6F726520737432
:1046B200616D696E6100496620796F752072756E51
:1046C200206F75742C00796F75276C6C206E656590
:1046D20064206120627265616B00546861742773A3
:1046E20020616C6C2066726F6D206D652C00656EAA
:0E46F2006A6F79207468652067616D6521002C
:00000001FF
